{
	"data": {
		"bytecode": {
			"linkReferences": {},
			"object": "6080604052348015600e575f80fd5b503360035f6101000a81548173ffffffffffffffffffffffffffffffffffffffff021916908373ffffffffffffffffffffffffffffffffffffffff16021790555061118d8061005c5f395ff3fe608060405234801561000f575f80fd5b5060043610610060575f3560e01c806303828e45146100645780632950c4bd1461009457806398e36d8b146100c4578063de2cff03146100f7578063eabc59a414610113578063f851a44014610131575b5f80fd5b61007e60048036038101906100799190610819565b61014f565b60405161008b9190610904565b60405180910390f35b6100ae60048036038101906100a9919061094e565b6101e1565b6040516100bb9190610a50565b60405180910390f35b6100de60048036038101906100d9919061094e565b61033f565b6040516100ee9493929190610ac7565b60405180910390f35b610111600480360381019061010c9190610b79565b610477565b005b61011b610766565b6040516101289190610c0a565b60405180910390f35b61013961076c565b6040516101469190610c32565b60405180910390f35b60605f808373ffffffffffffffffffffffffffffffffffffffff1673ffffffffffffffffffffffffffffffffffffffff1681526020019081526020015f208054806020026020016040519081016040528092919081815260200182805480156101d557602002820191905f5260205f20905b8154815260200190600101908083116101c1575b50505050509050919050565b6101e9610791565b60015f8381526020019081526020015f206040518060800160405290815f820154815260200160018201805461021e90610c78565b80601f016020809104026020016040519081016040528092919081815260200182805461024a90610c78565b80156102955780601f1061026c57610100808354040283529160200191610295565b820191905f5260205f20905b81548152906001019060200180831161027857829003601f168201915b505050505081526020016002820180546102ae90610c78565b80601f01602080910402602001604051908101604052809291908181526020018280546102da90610c78565b80156103255780601f106102fc57610100808354040283529160200191610325565b820191905f5260205f20905b81548152906001019060200180831161030857829003601f168201915b505050505081526020016003820154815250509050919050565b6001602052805f5260405f205f91509050805f01549080600101805461036490610c78565b80601f016020809104026020016040519081016040528092919081815260200182805461039090610c78565b80156103db5780601f106103b2576101008083540402835291602001916103db565b820191905f5260205f20905b8154815290600101906020018083116103be57829003601f168201915b5050505050908060020180546103f090610c78565b80601f016020809104026020016040519081016040528092919081815260200182805461041c90610c78565b80156104675780601f1061043e57610100808354040283529160200191610467565b820191905f5260205f20905b81548152906001019060200180831161044a57829003601f168201915b5050505050908060030154905084565b60035f9054906101000a900473ffffffffffffffffffffffffffffffffffffffff1673ffffffffffffffffffffffffffffffffffffffff163373ffffffffffffffffffffffffffffffffffffffff1614610506576040517f08c379a00000000000000000000000000000000000000000000000000000000081526004016104fd90610cf2565b60405180910390fd5b5f848490501161054b576040517f08c379a000000000000000000000000000000000000000000000000000000000815260040161054290610d5a565b60405180910390fd5b5f8282905011610590576040517f08c379a000000000000000000000000000000000000000000000000000000000815260040161058790610dc2565b60405180910390fd5b60025f8154809291906105a290610e0d565b91905055505f6040518060800160405280600254815260200186868080601f0160208091040260200160405190810160405280939291908181526020018383808284375f81840152601f19601f82011690508083019250505050505050815260200184848080601f0160208091040260200160405190810160405280939291908181526020018383808284375f81840152601f19601f8201169050808301925050505050505081526020014281525090508060015f60025481526020019081526020015f205f820151815f01556020820151816001019081610684919061101e565b50604082015181600201908161069a919061101e565b50606082015181600301559050505f808773ffffffffffffffffffffffffffffffffffffffff1673ffffffffffffffffffffffffffffffffffffffff1681526020019081526020015f20600254908060018154018082558091505060019003905f5260205f20015f90919091909150558573ffffffffffffffffffffffffffffffffffffffff167f879c7d2b55deb94dd32c475e42e46cb1b6182f7aeed60a21e2eeae0aee2b4737600254878760405161075693929190611127565b60405180910390a2505050505050565b60025481565b60035f9054906101000a900473ffffffffffffffffffffffffffffffffffffffff1681565b60405180608001604052805f815260200160608152602001606081526020015f81525090565b5f80fd5b5f80fd5b5f73ffffffffffffffffffffffffffffffffffffffff82169050919050565b5f6107e8826107bf565b9050919050565b6107f8816107de565b8114610802575f80fd5b50565b5f81359050610813816107ef565b92915050565b5f6020828403121561082e5761082d6107b7565b5b5f61083b84828501610805565b91505092915050565b5f81519050919050565b5f82825260208201905092915050565b5f819050602082019050919050565b5f819050919050565b61087f8161086d565b82525050565b5f6108908383610876565b60208301905092915050565b5f602082019050919050565b5f6108b282610844565b6108bc818561084e565b93506108c78361085e565b805f5b838110156108f75781516108de8882610885565b97506108e98361089c565b9250506001810190506108ca565b5085935050505092915050565b5f6020820190508181035f83015261091c81846108a8565b905092915050565b61092d8161086d565b8114610937575f80fd5b50565b5f8135905061094881610924565b92915050565b5f60208284031215610963576109626107b7565b5b5f6109708482850161093a565b91505092915050565b5f81519050919050565b5f82825260208201905092915050565b8281835e5f83830152505050565b5f601f19601f8301169050919050565b5f6109bb82610979565b6109c58185610983565b93506109d5818560208601610993565b6109de816109a1565b840191505092915050565b5f608083015f8301516109fe5f860182610876565b5060208301518482036020860152610a1682826109b1565b91505060408301518482036040860152610a3082826109b1565b9150506060830151610a456060860182610876565b508091505092915050565b5f6020820190508181035f830152610a6881846109e9565b905092915050565b610a798161086d565b82525050565b5f82825260208201905092915050565b5f610a9982610979565b610aa38185610a7f565b9350610ab3818560208601610993565b610abc816109a1565b840191505092915050565b5f608082019050610ada5f830187610a70565b8181036020830152610aec8186610a8f565b90508181036040830152610b008185610a8f565b9050610b0f6060830184610a70565b95945050505050565b5f80fd5b5f80fd5b5f80fd5b5f8083601f840112610b3957610b38610b18565b5b8235905067ffffffffffffffff811115610b5657610b55610b1c565b5b602083019150836001820283011115610b7257610b71610b20565b5b9250929050565b5f805f805f60608688031215610b9257610b916107b7565b5b5f610b9f88828901610805565b955050602086013567ffffffffffffffff811115610bc057610bbf6107bb565b5b610bcc88828901610b24565b9450945050604086013567ffffffffffffffff811115610bef57610bee6107bb565b5b610bfb88828901610b24565b92509250509295509295909350565b5f602082019050610c1d5f830184610a70565b92915050565b610c2c816107de565b82525050565b5f602082019050610c455f830184610c23565b92915050565b7f4e487b71000000000000000000000000000000000000000000000000000000005f52602260045260245ffd5b5f6002820490506001821680610c8f57607f821691505b602082108103610ca257610ca1610c4b565b5b50919050565b7f4f6e6c792061646d696e2063616e2069737375652062616467657300000000005f82015250565b5f610cdc601b83610a7f565b9150610ce782610ca8565b602082019050919050565b5f6020820190508181035f830152610d0981610cd0565b9050919050565b7f4261646765206e616d65206973207265717569726564000000000000000000005f82015250565b5f610d44601683610a7f565b9150610d4f82610d10565b602082019050919050565b5f6020820190508181035f830152610d7181610d38565b9050919050565b7f4d657461646174612069732072657175697265640000000000000000000000005f82015250565b5f610dac601483610a7f565b9150610db782610d78565b602082019050919050565b5f6020820190508181035f830152610dd981610da0565b9050919050565b7f4e487b71000000000000000000000000000000000000000000000000000000005f52601160045260245ffd5b5f610e178261086d565b91507fffffffffffffffffffffffffffffffffffffffffffffffffffffffffffffffff8203610e4957610e48610de0565b5b600182019050919050565b7f4e487b71000000000000000000000000000000000000000000000000000000005f52604160045260245ffd5b5f819050815f5260205f209050919050565b5f6020601f8301049050919050565b5f82821b905092915050565b5f60088302610edd7fffffffffffffffffffffffffffffffffffffffffffffffffffffffffffffffff82610ea2565b610ee78683610ea2565b95508019841693508086168417925050509392505050565b5f819050919050565b5f610f22610f1d610f188461086d565b610eff565b61086d565b9050919050565b5f819050919050565b610f3b83610f08565b610f4f610f4782610f29565b848454610eae565b825550505050565b5f90565b610f63610f57565b610f6e818484610f32565b505050565b5b81811015610f9157610f865f82610f5b565b600181019050610f74565b5050565b601f821115610fd657610fa781610e81565b610fb084610e93565b81016020851015610fbf578190505b610fd3610fcb85610e93565b830182610f73565b50505b505050565b5f82821c905092915050565b5f610ff65f1984600802610fdb565b1980831691505092915050565b5f61100e8383610fe7565b9150826002028217905092915050565b61102782610979565b67ffffffffffffffff8111156110405761103f610e54565b5b61104a8254610c78565b611055828285610f95565b5f60209050601f831160018114611086575f8415611074578287015190505b61107e8582611003565b8655506110e5565b601f19841661109486610e81565b5f5b828110156110bb57848901518255600182019150602085019450602081019050611096565b868310156110d857848901516110d4601f891682610fe7565b8355505b6001600288020188555050505b505050505050565b828183375f83830152505050565b5f6111068385610a7f565b93506111138385846110ed565b61111c836109a1565b840190509392505050565b5f60408201905061113a5f830186610a70565b818103602083015261114d8184866110fb565b905094935050505056fea2646970667358221220e1c6bc6b3c6a37c6e8af9b05d7223ce9afee26537f6547c60bb3e11d9d52797c64736f6c634300081a0033",
			"opcodes": "PUSH1 0x80 PUSH1 0x40 MSTORE CALLVALUE DUP1 ISZERO PUSH1 0xE JUMPI PUSH0 DUP1 REVERT JUMPDEST POP CALLER PUSH1 0x3 PUSH0 PUSH2 0x100 EXP DUP2 SLOAD DUP2 PUSH20 0xFFFFFFFFFFFFFFFFFFFFFFFFFFFFFFFFFFFFFFFF MUL NOT AND SWAP1 DUP4 PUSH20 0xFFFFFFFFFFFFFFFFFFFFFFFFFFFFFFFFFFFFFFFF AND MUL OR SWAP1 SSTORE POP PUSH2 0x118D DUP1 PUSH2 0x5C PUSH0 CODECOPY PUSH0 RETURN INVALID PUSH1 0x80 PUSH1 0x40 MSTORE CALLVALUE DUP1 ISZERO PUSH2 0xF JUMPI PUSH0 DUP1 REVERT JUMPDEST POP PUSH1 0x4 CALLDATASIZE LT PUSH2 0x60 JUMPI PUSH0 CALLDATALOAD PUSH1 0xE0 SHR DUP1 PUSH4 0x3828E45 EQ PUSH2 0x64 JUMPI DUP1 PUSH4 0x2950C4BD EQ PUSH2 0x94 JUMPI DUP1 PUSH4 0x98E36D8B EQ PUSH2 0xC4 JUMPI DUP1 PUSH4 0xDE2CFF03 EQ PUSH2 0xF7 JUMPI DUP1 PUSH4 0xEABC59A4 EQ PUSH2 0x113 JUMPI DUP1 PUSH4 0xF851A440 EQ PUSH2 0x131 JUMPI JUMPDEST PUSH0 DUP1 REVERT JUMPDEST PUSH2 0x7E PUSH1 0x4 DUP1 CALLDATASIZE SUB DUP2 ADD SWAP1 PUSH2 0x79 SWAP2 SWAP1 PUSH2 0x819 JUMP JUMPDEST PUSH2 0x14F JUMP JUMPDEST PUSH1 0x40 MLOAD PUSH2 0x8B SWAP2 SWAP1 PUSH2 0x904 JUMP JUMPDEST PUSH1 0x40 MLOAD DUP1 SWAP2 SUB SWAP1 RETURN JUMPDEST PUSH2 0xAE PUSH1 0x4 DUP1 CALLDATASIZE SUB DUP2 ADD SWAP1 PUSH2 0xA9 SWAP2 SWAP1 PUSH2 0x94E JUMP JUMPDEST PUSH2 0x1E1 JUMP JUMPDEST PUSH1 0x40 MLOAD PUSH2 0xBB SWAP2 SWAP1 PUSH2 0xA50 JUMP JUMPDEST PUSH1 0x40 MLOAD DUP1 SWAP2 SUB SWAP1 RETURN JUMPDEST PUSH2 0xDE PUSH1 0x4 DUP1 CALLDATASIZE SUB DUP2 ADD SWAP1 PUSH2 0xD9 SWAP2 SWAP1 PUSH2 0x94E JUMP JUMPDEST PUSH2 0x33F JUMP JUMPDEST PUSH1 0x40 MLOAD PUSH2 0xEE SWAP5 SWAP4 SWAP3 SWAP2 SWAP1 PUSH2 0xAC7 JUMP JUMPDEST PUSH1 0x40 MLOAD DUP1 SWAP2 SUB SWAP1 RETURN JUMPDEST PUSH2 0x111 PUSH1 0x4 DUP1 CALLDATASIZE SUB DUP2 ADD SWAP1 PUSH2 0x10C SWAP2 SWAP1 PUSH2 0xB79 JUMP JUMPDEST PUSH2 0x477 JUMP JUMPDEST STOP JUMPDEST PUSH2 0x11B PUSH2 0x766 JUMP JUMPDEST PUSH1 0x40 MLOAD PUSH2 0x128 SWAP2 SWAP1 PUSH2 0xC0A JUMP JUMPDEST PUSH1 0x40 MLOAD DUP1 SWAP2 SUB SWAP1 RETURN JUMPDEST PUSH2 0x139 PUSH2 0x76C JUMP JUMPDEST PUSH1 0x40 MLOAD PUSH2 0x146 SWAP2 SWAP1 PUSH2 0xC32 JUMP JUMPDEST PUSH1 0x40 MLOAD DUP1 SWAP2 SUB SWAP1 RETURN JUMPDEST PUSH1 0x60 PUSH0 DUP1 DUP4 PUSH20 0xFFFFFFFFFFFFFFFFFFFFFFFFFFFFFFFFFFFFFFFF AND PUSH20 0xFFFFFFFFFFFFFFFFFFFFFFFFFFFFFFFFFFFFFFFF AND DUP2 MSTORE PUSH1 0x20 ADD SWAP1 DUP2 MSTORE PUSH1 0x20 ADD PUSH0 KECCAK256 DUP1 SLOAD DUP1 PUSH1 0x20 MUL PUSH1 0x20 ADD PUSH1 0x40 MLOAD SWAP1 DUP2 ADD PUSH1 0x40 MSTORE DUP1 SWAP3 SWAP2 SWAP1 DUP2 DUP2 MSTORE PUSH1 0x20 ADD DUP3 DUP1 SLOAD DUP1 ISZERO PUSH2 0x1D5 JUMPI PUSH1 0x20 MUL DUP3 ADD SWAP2 SWAP1 PUSH0 MSTORE PUSH1 0x20 PUSH0 KECCAK256 SWAP1 JUMPDEST DUP2 SLOAD DUP2 MSTORE PUSH1 0x20 ADD SWAP1 PUSH1 0x1 ADD SWAP1 DUP1 DUP4 GT PUSH2 0x1C1 JUMPI JUMPDEST POP POP POP POP POP SWAP1 POP SWAP2 SWAP1 POP JUMP JUMPDEST PUSH2 0x1E9 PUSH2 0x791 JUMP JUMPDEST PUSH1 0x1 PUSH0 DUP4 DUP2 MSTORE PUSH1 0x20 ADD SWAP1 DUP2 MSTORE PUSH1 0x20 ADD PUSH0 KECCAK256 PUSH1 0x40 MLOAD DUP1 PUSH1 0x80 ADD PUSH1 0x40 MSTORE SWAP1 DUP2 PUSH0 DUP3 ADD SLOAD DUP2 MSTORE PUSH1 0x20 ADD PUSH1 0x1 DUP3 ADD DUP1 SLOAD PUSH2 0x21E SWAP1 PUSH2 0xC78 JUMP JUMPDEST DUP1 PUSH1 0x1F ADD PUSH1 0x20 DUP1 SWAP2 DIV MUL PUSH1 0x20 ADD PUSH1 0x40 MLOAD SWAP1 DUP2 ADD PUSH1 0x40 MSTORE DUP1 SWAP3 SWAP2 SWAP1 DUP2 DUP2 MSTORE PUSH1 0x20 ADD DUP3 DUP1 SLOAD PUSH2 0x24A SWAP1 PUSH2 0xC78 JUMP JUMPDEST DUP1 ISZERO PUSH2 0x295 JUMPI DUP1 PUSH1 0x1F LT PUSH2 0x26C JUMPI PUSH2 0x100 DUP1 DUP4 SLOAD DIV MUL DUP4 MSTORE SWAP2 PUSH1 0x20 ADD SWAP2 PUSH2 0x295 JUMP JUMPDEST DUP3 ADD SWAP2 SWAP1 PUSH0 MSTORE PUSH1 0x20 PUSH0 KECCAK256 SWAP1 JUMPDEST DUP2 SLOAD DUP2 MSTORE SWAP1 PUSH1 0x1 ADD SWAP1 PUSH1 0x20 ADD DUP1 DUP4 GT PUSH2 0x278 JUMPI DUP3 SWAP1 SUB PUSH1 0x1F AND DUP3 ADD SWAP2 JUMPDEST POP POP POP POP POP DUP2 MSTORE PUSH1 0x20 ADD PUSH1 0x2 DUP3 ADD DUP1 SLOAD PUSH2 0x2AE SWAP1 PUSH2 0xC78 JUMP JUMPDEST DUP1 PUSH1 0x1F ADD PUSH1 0x20 DUP1 SWAP2 DIV MUL PUSH1 0x20 ADD PUSH1 0x40 MLOAD SWAP1 DUP2 ADD PUSH1 0x40 MSTORE DUP1 SWAP3 SWAP2 SWAP1 DUP2 DUP2 MSTORE PUSH1 0x20 ADD DUP3 DUP1 SLOAD PUSH2 0x2DA SWAP1 PUSH2 0xC78 JUMP JUMPDEST DUP1 ISZERO PUSH2 0x325 JUMPI DUP1 PUSH1 0x1F LT PUSH2 0x2FC JUMPI PUSH2 0x100 DUP1 DUP4 SLOAD DIV MUL DUP4 MSTORE SWAP2 PUSH1 0x20 ADD SWAP2 PUSH2 0x325 JUMP JUMPDEST DUP3 ADD SWAP2 SWAP1 PUSH0 MSTORE PUSH1 0x20 PUSH0 KECCAK256 SWAP1 JUMPDEST DUP2 SLOAD DUP2 MSTORE SWAP1 PUSH1 0x1 ADD SWAP1 PUSH1 0x20 ADD DUP1 DUP4 GT PUSH2 0x308 JUMPI DUP3 SWAP1 SUB PUSH1 0x1F AND DUP3 ADD SWAP2 JUMPDEST POP POP POP POP POP DUP2 MSTORE PUSH1 0x20 ADD PUSH1 0x3 DUP3 ADD SLOAD DUP2 MSTORE POP POP SWAP1 POP SWAP2 SWAP1 POP JUMP JUMPDEST PUSH1 0x1 PUSH1 0x20 MSTORE DUP1 PUSH0 MSTORE PUSH1 0x40 PUSH0 KECCAK256 PUSH0 SWAP2 POP SWAP1 POP DUP1 PUSH0 ADD SLOAD SWAP1 DUP1 PUSH1 0x1 ADD DUP1 SLOAD PUSH2 0x364 SWAP1 PUSH2 0xC78 JUMP JUMPDEST DUP1 PUSH1 0x1F ADD PUSH1 0x20 DUP1 SWAP2 DIV MUL PUSH1 0x20 ADD PUSH1 0x40 MLOAD SWAP1 DUP2 ADD PUSH1 0x40 MSTORE DUP1 SWAP3 SWAP2 SWAP1 DUP2 DUP2 MSTORE PUSH1 0x20 ADD DUP3 DUP1 SLOAD PUSH2 0x390 SWAP1 PUSH2 0xC78 JUMP JUMPDEST DUP1 ISZERO PUSH2 0x3DB JUMPI DUP1 PUSH1 0x1F LT PUSH2 0x3B2 JUMPI PUSH2 0x100 DUP1 DUP4 SLOAD DIV MUL DUP4 MSTORE SWAP2 PUSH1 0x20 ADD SWAP2 PUSH2 0x3DB JUMP JUMPDEST DUP3 ADD SWAP2 SWAP1 PUSH0 MSTORE PUSH1 0x20 PUSH0 KECCAK256 SWAP1 JUMPDEST DUP2 SLOAD DUP2 MSTORE SWAP1 PUSH1 0x1 ADD SWAP1 PUSH1 0x20 ADD DUP1 DUP4 GT PUSH2 0x3BE JUMPI DUP3 SWAP1 SUB PUSH1 0x1F AND DUP3 ADD SWAP2 JUMPDEST POP POP POP POP POP SWAP1 DUP1 PUSH1 0x2 ADD DUP1 SLOAD PUSH2 0x3F0 SWAP1 PUSH2 0xC78 JUMP JUMPDEST DUP1 PUSH1 0x1F ADD PUSH1 0x20 DUP1 SWAP2 DIV MUL PUSH1 0x20 ADD PUSH1 0x40 MLOAD SWAP1 DUP2 ADD PUSH1 0x40 MSTORE DUP1 SWAP3 SWAP2 SWAP1 DUP2 DUP2 MSTORE PUSH1 0x20 ADD DUP3 DUP1 SLOAD PUSH2 0x41C SWAP1 PUSH2 0xC78 JUMP JUMPDEST DUP1 ISZERO PUSH2 0x467 JUMPI DUP1 PUSH1 0x1F LT PUSH2 0x43E JUMPI PUSH2 0x100 DUP1 DUP4 SLOAD DIV MUL DUP4 MSTORE SWAP2 PUSH1 0x20 ADD SWAP2 PUSH2 0x467 JUMP JUMPDEST DUP3 ADD SWAP2 SWAP1 PUSH0 MSTORE PUSH1 0x20 PUSH0 KECCAK256 SWAP1 JUMPDEST DUP2 SLOAD DUP2 MSTORE SWAP1 PUSH1 0x1 ADD SWAP1 PUSH1 0x20 ADD DUP1 DUP4 GT PUSH2 0x44A JUMPI DUP3 SWAP1 SUB PUSH1 0x1F AND DUP3 ADD SWAP2 JUMPDEST POP POP POP POP POP SWAP1 DUP1 PUSH1 0x3 ADD SLOAD SWAP1 POP DUP5 JUMP JUMPDEST PUSH1 0x3 PUSH0 SWAP1 SLOAD SWAP1 PUSH2 0x100 EXP SWAP1 DIV PUSH20 0xFFFFFFFFFFFFFFFFFFFFFFFFFFFFFFFFFFFFFFFF AND PUSH20 0xFFFFFFFFFFFFFFFFFFFFFFFFFFFFFFFFFFFFFFFF AND CALLER PUSH20 0xFFFFFFFFFFFFFFFFFFFFFFFFFFFFFFFFFFFFFFFF AND EQ PUSH2 0x506 JUMPI PUSH1 0x40 MLOAD PUSH32 0x8C379A000000000000000000000000000000000000000000000000000000000 DUP2 MSTORE PUSH1 0x4 ADD PUSH2 0x4FD SWAP1 PUSH2 0xCF2 JUMP JUMPDEST PUSH1 0x40 MLOAD DUP1 SWAP2 SUB SWAP1 REVERT JUMPDEST PUSH0 DUP5 DUP5 SWAP1 POP GT PUSH2 0x54B JUMPI PUSH1 0x40 MLOAD PUSH32 0x8C379A000000000000000000000000000000000000000000000000000000000 DUP2 MSTORE PUSH1 0x4 ADD PUSH2 0x542 SWAP1 PUSH2 0xD5A JUMP JUMPDEST PUSH1 0x40 MLOAD DUP1 SWAP2 SUB SWAP1 REVERT JUMPDEST PUSH0 DUP3 DUP3 SWAP1 POP GT PUSH2 0x590 JUMPI PUSH1 0x40 MLOAD PUSH32 0x8C379A000000000000000000000000000000000000000000000000000000000 DUP2 MSTORE PUSH1 0x4 ADD PUSH2 0x587 SWAP1 PUSH2 0xDC2 JUMP JUMPDEST PUSH1 0x40 MLOAD DUP1 SWAP2 SUB SWAP1 REVERT JUMPDEST PUSH1 0x2 PUSH0 DUP2 SLOAD DUP1 SWAP3 SWAP2 SWAP1 PUSH2 0x5A2 SWAP1 PUSH2 0xE0D JUMP JUMPDEST SWAP2 SWAP1 POP SSTORE POP PUSH0 PUSH1 0x40 MLOAD DUP1 PUSH1 0x80 ADD PUSH1 0x40 MSTORE DUP1 PUSH1 0x2 SLOAD DUP2 MSTORE PUSH1 0x20 ADD DUP7 DUP7 DUP1 DUP1 PUSH1 0x1F ADD PUSH1 0x20 DUP1 SWAP2 DIV MUL PUSH1 0x20 ADD PUSH1 0x40 MLOAD SWAP1 DUP2 ADD PUSH1 0x40 MSTORE DUP1 SWAP4 SWAP3 SWAP2 SWAP1 DUP2 DUP2 MSTORE PUSH1 0x20 ADD DUP4 DUP4 DUP1 DUP3 DUP5 CALLDATACOPY PUSH0 DUP2 DUP5 ADD MSTORE PUSH1 0x1F NOT PUSH1 0x1F DUP3 ADD AND SWAP1 POP DUP1 DUP4 ADD SWAP3 POP POP POP POP POP POP POP DUP2 MSTORE PUSH1 0x20 ADD DUP5 DUP5 DUP1 DUP1 PUSH1 0x1F ADD PUSH1 0x20 DUP1 SWAP2 DIV MUL PUSH1 0x20 ADD PUSH1 0x40 MLOAD SWAP1 DUP2 ADD PUSH1 0x40 MSTORE DUP1 SWAP4 SWAP3 SWAP2 SWAP1 DUP2 DUP2 MSTORE PUSH1 0x20 ADD DUP4 DUP4 DUP1 DUP3 DUP5 CALLDATACOPY PUSH0 DUP2 DUP5 ADD MSTORE PUSH1 0x1F NOT PUSH1 0x1F DUP3 ADD AND SWAP1 POP DUP1 DUP4 ADD SWAP3 POP POP POP POP POP POP POP DUP2 MSTORE PUSH1 0x20 ADD TIMESTAMP DUP2 MSTORE POP SWAP1 POP DUP1 PUSH1 0x1 PUSH0 PUSH1 0x2 SLOAD DUP2 MSTORE PUSH1 0x20 ADD SWAP1 DUP2 MSTORE PUSH1 0x20 ADD PUSH0 KECCAK256 PUSH0 DUP3 ADD MLOAD DUP2 PUSH0 ADD SSTORE PUSH1 0x20 DUP3 ADD MLOAD DUP2 PUSH1 0x1 ADD SWAP1 DUP2 PUSH2 0x684 SWAP2 SWAP1 PUSH2 0x101E JUMP JUMPDEST POP PUSH1 0x40 DUP3 ADD MLOAD DUP2 PUSH1 0x2 ADD SWAP1 DUP2 PUSH2 0x69A SWAP2 SWAP1 PUSH2 0x101E JUMP JUMPDEST POP PUSH1 0x60 DUP3 ADD MLOAD DUP2 PUSH1 0x3 ADD SSTORE SWAP1 POP POP PUSH0 DUP1 DUP8 PUSH20 0xFFFFFFFFFFFFFFFFFFFFFFFFFFFFFFFFFFFFFFFF AND PUSH20 0xFFFFFFFFFFFFFFFFFFFFFFFFFFFFFFFFFFFFFFFF AND DUP2 MSTORE PUSH1 0x20 ADD SWAP1 DUP2 MSTORE PUSH1 0x20 ADD PUSH0 KECCAK256 PUSH1 0x2 SLOAD SWAP1 DUP1 PUSH1 0x1 DUP2 SLOAD ADD DUP1 DUP3 SSTORE DUP1 SWAP2 POP POP PUSH1 0x1 SWAP1 SUB SWAP1 PUSH0 MSTORE PUSH1 0x20 PUSH0 KECCAK256 ADD PUSH0 SWAP1 SWAP2 SWAP1 SWAP2 SWAP1 SWAP2 POP SSTORE DUP6 PUSH20 0xFFFFFFFFFFFFFFFFFFFFFFFFFFFFFFFFFFFFFFFF AND PUSH32 0x879C7D2B55DEB94DD32C475E42E46CB1B6182F7AEED60A21E2EEAE0AEE2B4737 PUSH1 0x2 SLOAD DUP8 DUP8 PUSH1 0x40 MLOAD PUSH2 0x756 SWAP4 SWAP3 SWAP2 SWAP1 PUSH2 0x1127 JUMP JUMPDEST PUSH1 0x40 MLOAD DUP1 SWAP2 SUB SWAP1 LOG2 POP POP POP POP POP POP JUMP JUMPDEST PUSH1 0x2 SLOAD DUP2 JUMP JUMPDEST PUSH1 0x3 PUSH0 SWAP1 SLOAD SWAP1 PUSH2 0x100 EXP SWAP1 DIV PUSH20 0xFFFFFFFFFFFFFFFFFFFFFFFFFFFFFFFFFFFFFFFF AND DUP2 JUMP JUMPDEST PUSH1 0x40 MLOAD DUP1 PUSH1 0x80 ADD PUSH1 0x40 MSTORE DUP1 PUSH0 DUP2 MSTORE PUSH1 0x20 ADD PUSH1 0x60 DUP2 MSTORE PUSH1 0x20 ADD PUSH1 0x60 DUP2 MSTORE PUSH1 0x20 ADD PUSH0 DUP2 MSTORE POP SWAP1 JUMP JUMPDEST PUSH0 DUP1 REVERT JUMPDEST PUSH0 DUP1 REVERT JUMPDEST PUSH0 PUSH20 0xFFFFFFFFFFFFFFFFFFFFFFFFFFFFFFFFFFFFFFFF DUP3 AND SWAP1 POP SWAP2 SWAP1 POP JUMP JUMPDEST PUSH0 PUSH2 0x7E8 DUP3 PUSH2 0x7BF JUMP JUMPDEST SWAP1 POP SWAP2 SWAP1 POP JUMP JUMPDEST PUSH2 0x7F8 DUP2 PUSH2 0x7DE JUMP JUMPDEST DUP2 EQ PUSH2 0x802 JUMPI PUSH0 DUP1 REVERT JUMPDEST POP JUMP JUMPDEST PUSH0 DUP2 CALLDATALOAD SWAP1 POP PUSH2 0x813 DUP2 PUSH2 0x7EF JUMP JUMPDEST SWAP3 SWAP2 POP POP JUMP JUMPDEST PUSH0 PUSH1 0x20 DUP3 DUP5 SUB SLT ISZERO PUSH2 0x82E JUMPI PUSH2 0x82D PUSH2 0x7B7 JUMP JUMPDEST JUMPDEST PUSH0 PUSH2 0x83B DUP5 DUP3 DUP6 ADD PUSH2 0x805 JUMP JUMPDEST SWAP2 POP POP SWAP3 SWAP2 POP POP JUMP JUMPDEST PUSH0 DUP2 MLOAD SWAP1 POP SWAP2 SWAP1 POP JUMP JUMPDEST PUSH0 DUP3 DUP3 MSTORE PUSH1 0x20 DUP3 ADD SWAP1 POP SWAP3 SWAP2 POP POP JUMP JUMPDEST PUSH0 DUP2 SWAP1 POP PUSH1 0x20 DUP3 ADD SWAP1 POP SWAP2 SWAP1 POP JUMP JUMPDEST PUSH0 DUP2 SWAP1 POP SWAP2 SWAP1 POP JUMP JUMPDEST PUSH2 0x87F DUP2 PUSH2 0x86D JUMP JUMPDEST DUP3 MSTORE POP POP JUMP JUMPDEST PUSH0 PUSH2 0x890 DUP4 DUP4 PUSH2 0x876 JUMP JUMPDEST PUSH1 0x20 DUP4 ADD SWAP1 POP SWAP3 SWAP2 POP POP JUMP JUMPDEST PUSH0 PUSH1 0x20 DUP3 ADD SWAP1 POP SWAP2 SWAP1 POP JUMP JUMPDEST PUSH0 PUSH2 0x8B2 DUP3 PUSH2 0x844 JUMP JUMPDEST PUSH2 0x8BC DUP2 DUP6 PUSH2 0x84E JUMP JUMPDEST SWAP4 POP PUSH2 0x8C7 DUP4 PUSH2 0x85E JUMP JUMPDEST DUP1 PUSH0 JUMPDEST DUP4 DUP2 LT ISZERO PUSH2 0x8F7 JUMPI DUP2 MLOAD PUSH2 0x8DE DUP9 DUP3 PUSH2 0x885 JUMP JUMPDEST SWAP8 POP PUSH2 0x8E9 DUP4 PUSH2 0x89C JUMP JUMPDEST SWAP3 POP POP PUSH1 0x1 DUP2 ADD SWAP1 POP PUSH2 0x8CA JUMP JUMPDEST POP DUP6 SWAP4 POP POP POP POP SWAP3 SWAP2 POP POP JUMP JUMPDEST PUSH0 PUSH1 0x20 DUP3 ADD SWAP1 POP DUP2 DUP2 SUB PUSH0 DUP4 ADD MSTORE PUSH2 0x91C DUP2 DUP5 PUSH2 0x8A8 JUMP JUMPDEST SWAP1 POP SWAP3 SWAP2 POP POP JUMP JUMPDEST PUSH2 0x92D DUP2 PUSH2 0x86D JUMP JUMPDEST DUP2 EQ PUSH2 0x937 JUMPI PUSH0 DUP1 REVERT JUMPDEST POP JUMP JUMPDEST PUSH0 DUP2 CALLDATALOAD SWAP1 POP PUSH2 0x948 DUP2 PUSH2 0x924 JUMP JUMPDEST SWAP3 SWAP2 POP POP JUMP JUMPDEST PUSH0 PUSH1 0x20 DUP3 DUP5 SUB SLT ISZERO PUSH2 0x963 JUMPI PUSH2 0x962 PUSH2 0x7B7 JUMP JUMPDEST JUMPDEST PUSH0 PUSH2 0x970 DUP5 DUP3 DUP6 ADD PUSH2 0x93A JUMP JUMPDEST SWAP2 POP POP SWAP3 SWAP2 POP POP JUMP JUMPDEST PUSH0 DUP2 MLOAD SWAP1 POP SWAP2 SWAP1 POP JUMP JUMPDEST PUSH0 DUP3 DUP3 MSTORE PUSH1 0x20 DUP3 ADD SWAP1 POP SWAP3 SWAP2 POP POP JUMP JUMPDEST DUP3 DUP2 DUP4 MCOPY PUSH0 DUP4 DUP4 ADD MSTORE POP POP POP JUMP JUMPDEST PUSH0 PUSH1 0x1F NOT PUSH1 0x1F DUP4 ADD AND SWAP1 POP SWAP2 SWAP1 POP JUMP JUMPDEST PUSH0 PUSH2 0x9BB DUP3 PUSH2 0x979 JUMP JUMPDEST PUSH2 0x9C5 DUP2 DUP6 PUSH2 0x983 JUMP JUMPDEST SWAP4 POP PUSH2 0x9D5 DUP2 DUP6 PUSH1 0x20 DUP7 ADD PUSH2 0x993 JUMP JUMPDEST PUSH2 0x9DE DUP2 PUSH2 0x9A1 JUMP JUMPDEST DUP5 ADD SWAP2 POP POP SWAP3 SWAP2 POP POP JUMP JUMPDEST PUSH0 PUSH1 0x80 DUP4 ADD PUSH0 DUP4 ADD MLOAD PUSH2 0x9FE PUSH0 DUP7 ADD DUP3 PUSH2 0x876 JUMP JUMPDEST POP PUSH1 0x20 DUP4 ADD MLOAD DUP5 DUP3 SUB PUSH1 0x20 DUP7 ADD MSTORE PUSH2 0xA16 DUP3 DUP3 PUSH2 0x9B1 JUMP JUMPDEST SWAP2 POP POP PUSH1 0x40 DUP4 ADD MLOAD DUP5 DUP3 SUB PUSH1 0x40 DUP7 ADD MSTORE PUSH2 0xA30 DUP3 DUP3 PUSH2 0x9B1 JUMP JUMPDEST SWAP2 POP POP PUSH1 0x60 DUP4 ADD MLOAD PUSH2 0xA45 PUSH1 0x60 DUP7 ADD DUP3 PUSH2 0x876 JUMP JUMPDEST POP DUP1 SWAP2 POP POP SWAP3 SWAP2 POP POP JUMP JUMPDEST PUSH0 PUSH1 0x20 DUP3 ADD SWAP1 POP DUP2 DUP2 SUB PUSH0 DUP4 ADD MSTORE PUSH2 0xA68 DUP2 DUP5 PUSH2 0x9E9 JUMP JUMPDEST SWAP1 POP SWAP3 SWAP2 POP POP JUMP JUMPDEST PUSH2 0xA79 DUP2 PUSH2 0x86D JUMP JUMPDEST DUP3 MSTORE POP POP JUMP JUMPDEST PUSH0 DUP3 DUP3 MSTORE PUSH1 0x20 DUP3 ADD SWAP1 POP SWAP3 SWAP2 POP POP JUMP JUMPDEST PUSH0 PUSH2 0xA99 DUP3 PUSH2 0x979 JUMP JUMPDEST PUSH2 0xAA3 DUP2 DUP6 PUSH2 0xA7F JUMP JUMPDEST SWAP4 POP PUSH2 0xAB3 DUP2 DUP6 PUSH1 0x20 DUP7 ADD PUSH2 0x993 JUMP JUMPDEST PUSH2 0xABC DUP2 PUSH2 0x9A1 JUMP JUMPDEST DUP5 ADD SWAP2 POP POP SWAP3 SWAP2 POP POP JUMP JUMPDEST PUSH0 PUSH1 0x80 DUP3 ADD SWAP1 POP PUSH2 0xADA PUSH0 DUP4 ADD DUP8 PUSH2 0xA70 JUMP JUMPDEST DUP2 DUP2 SUB PUSH1 0x20 DUP4 ADD MSTORE PUSH2 0xAEC DUP2 DUP7 PUSH2 0xA8F JUMP JUMPDEST SWAP1 POP DUP2 DUP2 SUB PUSH1 0x40 DUP4 ADD MSTORE PUSH2 0xB00 DUP2 DUP6 PUSH2 0xA8F JUMP JUMPDEST SWAP1 POP PUSH2 0xB0F PUSH1 0x60 DUP4 ADD DUP5 PUSH2 0xA70 JUMP JUMPDEST SWAP6 SWAP5 POP POP POP POP POP JUMP JUMPDEST PUSH0 DUP1 REVERT JUMPDEST PUSH0 DUP1 REVERT JUMPDEST PUSH0 DUP1 REVERT JUMPDEST PUSH0 DUP1 DUP4 PUSH1 0x1F DUP5 ADD SLT PUSH2 0xB39 JUMPI PUSH2 0xB38 PUSH2 0xB18 JUMP JUMPDEST JUMPDEST DUP3 CALLDATALOAD SWAP1 POP PUSH8 0xFFFFFFFFFFFFFFFF DUP2 GT ISZERO PUSH2 0xB56 JUMPI PUSH2 0xB55 PUSH2 0xB1C JUMP JUMPDEST JUMPDEST PUSH1 0x20 DUP4 ADD SWAP2 POP DUP4 PUSH1 0x1 DUP3 MUL DUP4 ADD GT ISZERO PUSH2 0xB72 JUMPI PUSH2 0xB71 PUSH2 0xB20 JUMP JUMPDEST JUMPDEST SWAP3 POP SWAP3 SWAP1 POP JUMP JUMPDEST PUSH0 DUP1 PUSH0 DUP1 PUSH0 PUSH1 0x60 DUP7 DUP9 SUB SLT ISZERO PUSH2 0xB92 JUMPI PUSH2 0xB91 PUSH2 0x7B7 JUMP JUMPDEST JUMPDEST PUSH0 PUSH2 0xB9F DUP9 DUP3 DUP10 ADD PUSH2 0x805 JUMP JUMPDEST SWAP6 POP POP PUSH1 0x20 DUP7 ADD CALLDATALOAD PUSH8 0xFFFFFFFFFFFFFFFF DUP2 GT ISZERO PUSH2 0xBC0 JUMPI PUSH2 0xBBF PUSH2 0x7BB JUMP JUMPDEST JUMPDEST PUSH2 0xBCC DUP9 DUP3 DUP10 ADD PUSH2 0xB24 JUMP JUMPDEST SWAP5 POP SWAP5 POP POP PUSH1 0x40 DUP7 ADD CALLDATALOAD PUSH8 0xFFFFFFFFFFFFFFFF DUP2 GT ISZERO PUSH2 0xBEF JUMPI PUSH2 0xBEE PUSH2 0x7BB JUMP JUMPDEST JUMPDEST PUSH2 0xBFB DUP9 DUP3 DUP10 ADD PUSH2 0xB24 JUMP JUMPDEST SWAP3 POP SWAP3 POP POP SWAP3 SWAP6 POP SWAP3 SWAP6 SWAP1 SWAP4 POP JUMP JUMPDEST PUSH0 PUSH1 0x20 DUP3 ADD SWAP1 POP PUSH2 0xC1D PUSH0 DUP4 ADD DUP5 PUSH2 0xA70 JUMP JUMPDEST SWAP3 SWAP2 POP POP JUMP JUMPDEST PUSH2 0xC2C DUP2 PUSH2 0x7DE JUMP JUMPDEST DUP3 MSTORE POP POP JUMP JUMPDEST PUSH0 PUSH1 0x20 DUP3 ADD SWAP1 POP PUSH2 0xC45 PUSH0 DUP4 ADD DUP5 PUSH2 0xC23 JUMP JUMPDEST SWAP3 SWAP2 POP POP JUMP JUMPDEST PUSH32 0x4E487B7100000000000000000000000000000000000000000000000000000000 PUSH0 MSTORE PUSH1 0x22 PUSH1 0x4 MSTORE PUSH1 0x24 PUSH0 REVERT JUMPDEST PUSH0 PUSH1 0x2 DUP3 DIV SWAP1 POP PUSH1 0x1 DUP3 AND DUP1 PUSH2 0xC8F JUMPI PUSH1 0x7F DUP3 AND SWAP2 POP JUMPDEST PUSH1 0x20 DUP3 LT DUP2 SUB PUSH2 0xCA2 JUMPI PUSH2 0xCA1 PUSH2 0xC4B JUMP JUMPDEST JUMPDEST POP SWAP2 SWAP1 POP JUMP JUMPDEST PUSH32 0x4F6E6C792061646D696E2063616E206973737565206261646765730000000000 PUSH0 DUP3 ADD MSTORE POP JUMP JUMPDEST PUSH0 PUSH2 0xCDC PUSH1 0x1B DUP4 PUSH2 0xA7F JUMP JUMPDEST SWAP2 POP PUSH2 0xCE7 DUP3 PUSH2 0xCA8 JUMP JUMPDEST PUSH1 0x20 DUP3 ADD SWAP1 POP SWAP2 SWAP1 POP JUMP JUMPDEST PUSH0 PUSH1 0x20 DUP3 ADD SWAP1 POP DUP2 DUP2 SUB PUSH0 DUP4 ADD MSTORE PUSH2 0xD09 DUP2 PUSH2 0xCD0 JUMP JUMPDEST SWAP1 POP SWAP2 SWAP1 POP JUMP JUMPDEST PUSH32 0x4261646765206E616D6520697320726571756972656400000000000000000000 PUSH0 DUP3 ADD MSTORE POP JUMP JUMPDEST PUSH0 PUSH2 0xD44 PUSH1 0x16 DUP4 PUSH2 0xA7F JUMP JUMPDEST SWAP2 POP PUSH2 0xD4F DUP3 PUSH2 0xD10 JUMP JUMPDEST PUSH1 0x20 DUP3 ADD SWAP1 POP SWAP2 SWAP1 POP JUMP JUMPDEST PUSH0 PUSH1 0x20 DUP3 ADD SWAP1 POP DUP2 DUP2 SUB PUSH0 DUP4 ADD MSTORE PUSH2 0xD71 DUP2 PUSH2 0xD38 JUMP JUMPDEST SWAP1 POP SWAP2 SWAP1 POP JUMP JUMPDEST PUSH32 0x4D65746164617461206973207265717569726564000000000000000000000000 PUSH0 DUP3 ADD MSTORE POP JUMP JUMPDEST PUSH0 PUSH2 0xDAC PUSH1 0x14 DUP4 PUSH2 0xA7F JUMP JUMPDEST SWAP2 POP PUSH2 0xDB7 DUP3 PUSH2 0xD78 JUMP JUMPDEST PUSH1 0x20 DUP3 ADD SWAP1 POP SWAP2 SWAP1 POP JUMP JUMPDEST PUSH0 PUSH1 0x20 DUP3 ADD SWAP1 POP DUP2 DUP2 SUB PUSH0 DUP4 ADD MSTORE PUSH2 0xDD9 DUP2 PUSH2 0xDA0 JUMP JUMPDEST SWAP1 POP SWAP2 SWAP1 POP JUMP JUMPDEST PUSH32 0x4E487B7100000000000000000000000000000000000000000000000000000000 PUSH0 MSTORE PUSH1 0x11 PUSH1 0x4 MSTORE PUSH1 0x24 PUSH0 REVERT JUMPDEST PUSH0 PUSH2 0xE17 DUP3 PUSH2 0x86D JUMP JUMPDEST SWAP2 POP PUSH32 0xFFFFFFFFFFFFFFFFFFFFFFFFFFFFFFFFFFFFFFFFFFFFFFFFFFFFFFFFFFFFFFFF DUP3 SUB PUSH2 0xE49 JUMPI PUSH2 0xE48 PUSH2 0xDE0 JUMP JUMPDEST JUMPDEST PUSH1 0x1 DUP3 ADD SWAP1 POP SWAP2 SWAP1 POP JUMP JUMPDEST PUSH32 0x4E487B7100000000000000000000000000000000000000000000000000000000 PUSH0 MSTORE PUSH1 0x41 PUSH1 0x4 MSTORE PUSH1 0x24 PUSH0 REVERT JUMPDEST PUSH0 DUP2 SWAP1 POP DUP2 PUSH0 MSTORE PUSH1 0x20 PUSH0 KECCAK256 SWAP1 POP SWAP2 SWAP1 POP JUMP JUMPDEST PUSH0 PUSH1 0x20 PUSH1 0x1F DUP4 ADD DIV SWAP1 POP SWAP2 SWAP1 POP JUMP JUMPDEST PUSH0 DUP3 DUP3 SHL SWAP1 POP SWAP3 SWAP2 POP POP JUMP JUMPDEST PUSH0 PUSH1 0x8 DUP4 MUL PUSH2 0xEDD PUSH32 0xFFFFFFFFFFFFFFFFFFFFFFFFFFFFFFFFFFFFFFFFFFFFFFFFFFFFFFFFFFFFFFFF DUP3 PUSH2 0xEA2 JUMP JUMPDEST PUSH2 0xEE7 DUP7 DUP4 PUSH2 0xEA2 JUMP JUMPDEST SWAP6 POP DUP1 NOT DUP5 AND SWAP4 POP DUP1 DUP7 AND DUP5 OR SWAP3 POP POP POP SWAP4 SWAP3 POP POP POP JUMP JUMPDEST PUSH0 DUP2 SWAP1 POP SWAP2 SWAP1 POP JUMP JUMPDEST PUSH0 PUSH2 0xF22 PUSH2 0xF1D PUSH2 0xF18 DUP5 PUSH2 0x86D JUMP JUMPDEST PUSH2 0xEFF JUMP JUMPDEST PUSH2 0x86D JUMP JUMPDEST SWAP1 POP SWAP2 SWAP1 POP JUMP JUMPDEST PUSH0 DUP2 SWAP1 POP SWAP2 SWAP1 POP JUMP JUMPDEST PUSH2 0xF3B DUP4 PUSH2 0xF08 JUMP JUMPDEST PUSH2 0xF4F PUSH2 0xF47 DUP3 PUSH2 0xF29 JUMP JUMPDEST DUP5 DUP5 SLOAD PUSH2 0xEAE JUMP JUMPDEST DUP3 SSTORE POP POP POP POP JUMP JUMPDEST PUSH0 SWAP1 JUMP JUMPDEST PUSH2 0xF63 PUSH2 0xF57 JUMP JUMPDEST PUSH2 0xF6E DUP2 DUP5 DUP5 PUSH2 0xF32 JUMP JUMPDEST POP POP POP JUMP JUMPDEST JUMPDEST DUP2 DUP2 LT ISZERO PUSH2 0xF91 JUMPI PUSH2 0xF86 PUSH0 DUP3 PUSH2 0xF5B JUMP JUMPDEST PUSH1 0x1 DUP2 ADD SWAP1 POP PUSH2 0xF74 JUMP JUMPDEST POP POP JUMP JUMPDEST PUSH1 0x1F DUP3 GT ISZERO PUSH2 0xFD6 JUMPI PUSH2 0xFA7 DUP2 PUSH2 0xE81 JUMP JUMPDEST PUSH2 0xFB0 DUP5 PUSH2 0xE93 JUMP JUMPDEST DUP2 ADD PUSH1 0x20 DUP6 LT ISZERO PUSH2 0xFBF JUMPI DUP2 SWAP1 POP JUMPDEST PUSH2 0xFD3 PUSH2 0xFCB DUP6 PUSH2 0xE93 JUMP JUMPDEST DUP4 ADD DUP3 PUSH2 0xF73 JUMP JUMPDEST POP POP JUMPDEST POP POP POP JUMP JUMPDEST PUSH0 DUP3 DUP3 SHR SWAP1 POP SWAP3 SWAP2 POP POP JUMP JUMPDEST PUSH0 PUSH2 0xFF6 PUSH0 NOT DUP5 PUSH1 0x8 MUL PUSH2 0xFDB JUMP JUMPDEST NOT DUP1 DUP4 AND SWAP2 POP POP SWAP3 SWAP2 POP POP JUMP JUMPDEST PUSH0 PUSH2 0x100E DUP4 DUP4 PUSH2 0xFE7 JUMP JUMPDEST SWAP2 POP DUP3 PUSH1 0x2 MUL DUP3 OR SWAP1 POP SWAP3 SWAP2 POP POP JUMP JUMPDEST PUSH2 0x1027 DUP3 PUSH2 0x979 JUMP JUMPDEST PUSH8 0xFFFFFFFFFFFFFFFF DUP2 GT ISZERO PUSH2 0x1040 JUMPI PUSH2 0x103F PUSH2 0xE54 JUMP JUMPDEST JUMPDEST PUSH2 0x104A DUP3 SLOAD PUSH2 0xC78 JUMP JUMPDEST PUSH2 0x1055 DUP3 DUP3 DUP6 PUSH2 0xF95 JUMP JUMPDEST PUSH0 PUSH1 0x20 SWAP1 POP PUSH1 0x1F DUP4 GT PUSH1 0x1 DUP2 EQ PUSH2 0x1086 JUMPI PUSH0 DUP5 ISZERO PUSH2 0x1074 JUMPI DUP3 DUP8 ADD MLOAD SWAP1 POP JUMPDEST PUSH2 0x107E DUP6 DUP3 PUSH2 0x1003 JUMP JUMPDEST DUP7 SSTORE POP PUSH2 0x10E5 JUMP JUMPDEST PUSH1 0x1F NOT DUP5 AND PUSH2 0x1094 DUP7 PUSH2 0xE81 JUMP JUMPDEST PUSH0 JUMPDEST DUP3 DUP2 LT ISZERO PUSH2 0x10BB JUMPI DUP5 DUP10 ADD MLOAD DUP3 SSTORE PUSH1 0x1 DUP3 ADD SWAP2 POP PUSH1 0x20 DUP6 ADD SWAP5 POP PUSH1 0x20 DUP2 ADD SWAP1 POP PUSH2 0x1096 JUMP JUMPDEST DUP7 DUP4 LT ISZERO PUSH2 0x10D8 JUMPI DUP5 DUP10 ADD MLOAD PUSH2 0x10D4 PUSH1 0x1F DUP10 AND DUP3 PUSH2 0xFE7 JUMP JUMPDEST DUP4 SSTORE POP JUMPDEST PUSH1 0x1 PUSH1 0x2 DUP9 MUL ADD DUP9 SSTORE POP POP POP JUMPDEST POP POP POP POP POP POP JUMP JUMPDEST DUP3 DUP2 DUP4 CALLDATACOPY PUSH0 DUP4 DUP4 ADD MSTORE POP POP POP JUMP JUMPDEST PUSH0 PUSH2 0x1106 DUP4 DUP6 PUSH2 0xA7F JUMP JUMPDEST SWAP4 POP PUSH2 0x1113 DUP4 DUP6 DUP5 PUSH2 0x10ED JUMP JUMPDEST PUSH2 0x111C DUP4 PUSH2 0x9A1 JUMP JUMPDEST DUP5 ADD SWAP1 POP SWAP4 SWAP3 POP POP POP JUMP JUMPDEST PUSH0 PUSH1 0x40 DUP3 ADD SWAP1 POP PUSH2 0x113A PUSH0 DUP4 ADD DUP7 PUSH2 0xA70 JUMP JUMPDEST DUP2 DUP2 SUB PUSH1 0x20 DUP4 ADD MSTORE PUSH2 0x114D DUP2 DUP5 DUP7 PUSH2 0x10FB JUMP JUMPDEST SWAP1 POP SWAP5 SWAP4 POP POP POP POP JUMP INVALID LOG2 PUSH5 0x6970667358 0x22 SLT KECCAK256 0xE1 0xC6 0xBC PUSH12 0x3C6A37C6E8AF9B05D7223CE9 0xAF 0xEE 0x26 MSTORE8 PUSH32 0x6547C60BB3E11D9D52797C64736F6C634300081A003300000000000000000000 "
		},
		"gasEstimates": {
			"creation": {
				"codeDepositCost": "898600",
				"executionCost": "25198",
				"totalCost": "923798"
			},
			"external": {
				"admin()": "2596",
				"badgeIdCounter()": "2491",
				"badges(uint256)": "infinite",
				"getBadgeDetails(uint256)": "infinite",
				"getBadges(address)": "infinite",
				"issueBadge(address,string,string)": "infinite"
			}
		},
		"methodIdentifiers": {
			"admin()": "f851a440",
			"badgeIdCounter()": "eabc59a4",
			"badges(uint256)": "98e36d8b",
			"getBadgeDetails(uint256)": "2950c4bd",
			"getBadges(address)": "03828e45",
			"issueBadge(address,string,string)": "de2cff03"
		}
	},
	"abi": [
		{
			"inputs": [],
			"stateMutability": "nonpayable",
			"type": "constructor"
		},
		{
			"anonymous": false,
			"inputs": [
				{
					"indexed": true,
					"internalType": "address",
					"name": "learner",
					"type": "address"
				},
				{
					"indexed": false,
					"internalType": "uint256",
					"name": "badgeId",
					"type": "uint256"
				},
				{
					"indexed": false,
					"internalType": "string",
					"name": "name",
					"type": "string"
				}
			],
			"name": "BadgeIssued",
			"type": "event"
		},
		{
			"inputs": [],
			"name": "admin",
			"outputs": [
				{
					"internalType": "address",
					"name": "",
					"type": "address"
				}
			],
			"stateMutability": "view",
			"type": "function"
		},
		{
			"inputs": [],
			"name": "badgeIdCounter",
			"outputs": [
				{
					"internalType": "uint256",
					"name": "",
					"type": "uint256"
				}
			],
			"stateMutability": "view",
			"type": "function"
		},
		{
			"inputs": [
				{
					"internalType": "uint256",
					"name": "",
					"type": "uint256"
				}
			],
			"name": "badges",
			"outputs": [
				{
					"internalType": "uint256",
					"name": "badgeId",
					"type": "uint256"
				},
				{
					"internalType": "string",
					"name": "name",
					"type": "string"
				},
				{
					"internalType": "string",
					"name": "metadata",
					"type": "string"
				},
				{
					"internalType": "uint256",
					"name": "issuedAt",
					"type": "uint256"
				}
			],
			"stateMutability": "view",
			"type": "function"
		},
		{
			"inputs": [
				{
					"internalType": "uint256",
					"name": "badgeId",
					"type": "uint256"
				}
			],
			"name": "getBadgeDetails",
			"outputs": [
				{
					"components": [
						{
							"internalType": "uint256",
							"name": "badgeId",
							"type": "uint256"
						},
						{
							"internalType": "string",
							"name": "name",
							"type": "string"
						},
						{
							"internalType": "string",
							"name": "metadata",
							"type": "string"
						},
						{
							"internalType": "uint256",
							"name": "issuedAt",
							"type": "uint256"
						}
					],
					"internalType": "struct LearningBadges.Badge",
					"name": "",
					"type": "tuple"
				}
			],
			"stateMutability": "view",
			"type": "function"
		},
		{
			"inputs": [
				{
					"internalType": "address",
					"name": "learner",
					"type": "address"
				}
			],
			"name": "getBadges",
			"outputs": [
				{
					"internalType": "uint256[]",
					"name": "",
					"type": "uint256[]"
				}
			],
			"stateMutability": "view",
			"type": "function"
		},
		{
			"inputs": [
				{
					"internalType": "address",
					"name": "learner",
					"type": "address"
				},
				{
					"internalType": "string",
					"name": "badgeName",
					"type": "string"
				},
				{
					"internalType": "string",
					"name": "metadata",
					"type": "string"
				}
			],
			"name": "issueBadge",
			"outputs": [],
			"stateMutability": "nonpayable",
			"type": "function"
		}
	]
}